{
  "_format": "hh-sol-artifact-1",
  "contractName": "AdAuction",
  "sourceName": "contracts/AdAuction.sol",
  "abi": [
    {
      "inputs": [
        {
          "internalType": "string",
          "name": "_adText",
          "type": "string"
        },
        {
          "internalType": "string",
          "name": "_adImageUrl",
          "type": "string"
        },
        {
          "internalType": "string",
          "name": "_adLinkUrl",
          "type": "string"
        },
        {
          "internalType": "uint256",
          "name": "_adPrice",
          "type": "uint256"
        },
        {
          "internalType": "uint256",
          "name": "_adPriceIncrement",
          "type": "uint256"
        }
      ],
      "stateMutability": "nonpayable",
      "type": "constructor"
    },
    {
      "inputs": [],
      "name": "adImageUrl",
      "outputs": [
        {
          "internalType": "string",
          "name": "",
          "type": "string"
        }
      ],
      "stateMutability": "view",
      "type": "function"
    },
    {
      "inputs": [],
      "name": "adLinkUrl",
      "outputs": [
        {
          "internalType": "string",
          "name": "",
          "type": "string"
        }
      ],
      "stateMutability": "view",
      "type": "function"
    },
    {
      "inputs": [],
      "name": "adPriceIncrement",
      "outputs": [
        {
          "internalType": "uint256",
          "name": "",
          "type": "uint256"
        }
      ],
      "stateMutability": "view",
      "type": "function"
    },
    {
      "inputs": [],
      "name": "adText",
      "outputs": [
        {
          "internalType": "string",
          "name": "",
          "type": "string"
        }
      ],
      "stateMutability": "view",
      "type": "function"
    },
    {
      "inputs": [
        {
          "internalType": "string",
          "name": "_adText",
          "type": "string"
        },
        {
          "internalType": "string",
          "name": "_adImageUrl",
          "type": "string"
        },
        {
          "internalType": "string",
          "name": "_adLinkUrl",
          "type": "string"
        }
      ],
      "name": "buyAd",
      "outputs": [],
      "stateMutability": "payable",
      "type": "function"
    },
    {
      "inputs": [],
      "name": "lastPrice",
      "outputs": [
        {
          "internalType": "uint256",
          "name": "",
          "type": "uint256"
        }
      ],
      "stateMutability": "view",
      "type": "function"
    },
    {
      "inputs": [
        {
          "internalType": "uint256",
          "name": "_increment",
          "type": "uint256"
        }
      ],
      "name": "setIncrement",
      "outputs": [],
      "stateMutability": "nonpayable",
      "type": "function"
    },
    {
      "inputs": [
        {
          "internalType": "uint256",
          "name": "_price",
          "type": "uint256"
        }
      ],
      "name": "setPrice",
      "outputs": [],
      "stateMutability": "nonpayable",
      "type": "function"
    }
  ],
  "bytecode": "0x60806040523480156200001157600080fd5b50604051620010043803806200100483398181016040528101906200003791906200037b565b336000806101000a81548173ffffffffffffffffffffffffffffffffffffffff021916908373ffffffffffffffffffffffffffffffffffffffff1602179055506200008a858585620000a360201b60201c565b81600481905550806005819055505050505050620004c5565b8260019080519060200190620000bb929190620000f3565b508160029080519060200190620000d4929190620000f3565b508060039080519060200190620000ed929190620000f3565b50505050565b82805462000101906200048f565b90600052602060002090601f01602090048101928262000125576000855562000171565b82601f106200014057805160ff191683800117855562000171565b8280016001018555821562000171579182015b828111156200017057825182559160200191906001019062000153565b5b50905062000180919062000184565b5090565b5b808211156200019f57600081600090555060010162000185565b5090565b6000604051905090565b600080fd5b600080fd5b600080fd5b600080fd5b6000601f19601f8301169050919050565b7f4e487b7100000000000000000000000000000000000000000000000000000000600052604160045260246000fd5b6200020c82620001c1565b810181811067ffffffffffffffff821117156200022e576200022d620001d2565b5b80604052505050565b600062000243620001a3565b905062000251828262000201565b919050565b600067ffffffffffffffff821115620002745762000273620001d2565b5b6200027f82620001c1565b9050602081019050919050565b60005b83811015620002ac5780820151818401526020810190506200028f565b83811115620002bc576000848401525b50505050565b6000620002d9620002d38462000256565b62000237565b905082815260208101848484011115620002f857620002f7620001bc565b5b620003058482856200028c565b509392505050565b600082601f830112620003255762000324620001b7565b5b815162000337848260208601620002c2565b91505092915050565b6000819050919050565b620003558162000340565b81146200036157600080fd5b50565b60008151905062000375816200034a565b92915050565b600080600080600060a086880312156200039a5762000399620001ad565b5b600086015167ffffffffffffffff811115620003bb57620003ba620001b2565b5b620003c9888289016200030d565b955050602086015167ffffffffffffffff811115620003ed57620003ec620001b2565b5b620003fb888289016200030d565b945050604086015167ffffffffffffffff8111156200041f576200041e620001b2565b5b6200042d888289016200030d565b9350506060620004408882890162000364565b9250506080620004538882890162000364565b9150509295509295909350565b7f4e487b7100000000000000000000000000000000000000000000000000000000600052602260045260246000fd5b60006002820490506001821680620004a857607f821691505b60208210811415620004bf57620004be62000460565b5b50919050565b610b2f80620004d56000396000f3fe60806040526004361061007b5760003560e01c806362e4738f1161004e57806362e4738f1461011d57806391b7f5ed146101485780639f1bd67614610171578063ddf3fc1a1461019c5761007b565b8063053f14da146100805780632de56db4146100ab578063397807c5146100c75780634c2f23ee146100f2575b600080fd5b34801561008c57600080fd5b506100956101c5565b6040516100a2919061061c565b60405180910390f35b6100c560048036038101906100c09190610791565b6101cb565b005b3480156100d357600080fd5b506100dc610276565b6040516100e991906108c0565b60405180910390f35b3480156100fe57600080fd5b50610107610304565b604051610114919061061c565b60405180910390f35b34801561012957600080fd5b5061013261030a565b60405161013f91906108c0565b60405180910390f35b34801561015457600080fd5b5061016f600480360381019061016a919061090e565b610398565b005b34801561017d57600080fd5b50610186610430565b60405161019391906108c0565b60405180910390f35b3480156101a857600080fd5b506101c360048036038101906101be919061090e565b6104be565b005b60045481565b60006005546004546101dd919061096a565b905080341015610222576040517f08c379a000000000000000000000000000000000000000000000000000000000815260040161021990610a0c565b60405180910390fd5b8360019080519060200190610238929190610560565b50826002908051906020019061024f929190610560565b508160039080519060200190610266929190610560565b5061027034610556565b50505050565b6002805461028390610a5b565b80601f01602080910402602001604051908101604052809291908181526020018280546102af90610a5b565b80156102fc5780601f106102d1576101008083540402835291602001916102fc565b820191906000526020600020905b8154815290600101906020018083116102df57829003601f168201915b505050505081565b60055481565b6003805461031790610a5b565b80601f016020809104026020016040519081016040528092919081815260200182805461034390610a5b565b80156103905780601f1061036557610100808354040283529160200191610390565b820191906000526020600020905b81548152906001019060200180831161037357829003601f168201915b505050505081565b60008054906101000a900473ffffffffffffffffffffffffffffffffffffffff1673ffffffffffffffffffffffffffffffffffffffff163373ffffffffffffffffffffffffffffffffffffffff1614610426576040517f08c379a000000000000000000000000000000000000000000000000000000000815260040161041d90610ad9565b60405180910390fd5b8060048190555050565b6001805461043d90610a5b565b80601f016020809104026020016040519081016040528092919081815260200182805461046990610a5b565b80156104b65780601f1061048b576101008083540402835291602001916104b6565b820191906000526020600020905b81548152906001019060200180831161049957829003601f168201915b505050505081565b60008054906101000a900473ffffffffffffffffffffffffffffffffffffffff1673ffffffffffffffffffffffffffffffffffffffff163373ffffffffffffffffffffffffffffffffffffffff161461054c576040517f08c379a000000000000000000000000000000000000000000000000000000000815260040161054390610ad9565b60405180910390fd5b8060058190555050565b8060048190555050565b82805461056c90610a5b565b90600052602060002090601f01602090048101928261058e57600085556105d5565b82601f106105a757805160ff19168380011785556105d5565b828001600101855582156105d5579182015b828111156105d45782518255916020019190600101906105b9565b5b5090506105e291906105e6565b5090565b5b808211156105ff5760008160009055506001016105e7565b5090565b6000819050919050565b61061681610603565b82525050565b6000602082019050610631600083018461060d565b92915050565b6000604051905090565b600080fd5b600080fd5b600080fd5b600080fd5b6000601f19601f8301169050919050565b7f4e487b7100000000000000000000000000000000000000000000000000000000600052604160045260246000fd5b61069e82610655565b810181811067ffffffffffffffff821117156106bd576106bc610666565b5b80604052505050565b60006106d0610637565b90506106dc8282610695565b919050565b600067ffffffffffffffff8211156106fc576106fb610666565b5b61070582610655565b9050602081019050919050565b82818337600083830152505050565b600061073461072f846106e1565b6106c6565b9050828152602081018484840111156107505761074f610650565b5b61075b848285610712565b509392505050565b600082601f8301126107785761077761064b565b5b8135610788848260208601610721565b91505092915050565b6000806000606084860312156107aa576107a9610641565b5b600084013567ffffffffffffffff8111156107c8576107c7610646565b5b6107d486828701610763565b935050602084013567ffffffffffffffff8111156107f5576107f4610646565b5b61080186828701610763565b925050604084013567ffffffffffffffff81111561082257610821610646565b5b61082e86828701610763565b9150509250925092565b600081519050919050565b600082825260208201905092915050565b60005b83811015610872578082015181840152602081019050610857565b83811115610881576000848401525b50505050565b600061089282610838565b61089c8185610843565b93506108ac818560208601610854565b6108b581610655565b840191505092915050565b600060208201905081810360008301526108da8184610887565b905092915050565b6108eb81610603565b81146108f657600080fd5b50565b600081359050610908816108e2565b92915050565b60006020828403121561092457610923610641565b5b6000610932848285016108f9565b91505092915050565b7f4e487b7100000000000000000000000000000000000000000000000000000000600052601160045260246000fd5b600061097582610603565b915061098083610603565b9250827fffffffffffffffffffffffffffffffffffffffffffffffffffffffffffffffff038211156109b5576109b461093b565b5b828201905092915050565b7f696e73756666696369656e74207061796d656e74000000000000000000000000600082015250565b60006109f6601483610843565b9150610a01826109c0565b602082019050919050565b60006020820190508181036000830152610a25816109e9565b9050919050565b7f4e487b7100000000000000000000000000000000000000000000000000000000600052602260045260246000fd5b60006002820490506001821680610a7357607f821691505b60208210811415610a8757610a86610a2c565b5b50919050565b7f6163636573732064656e69656400000000000000000000000000000000000000600082015250565b6000610ac3600d83610843565b9150610ace82610a8d565b602082019050919050565b60006020820190508181036000830152610af281610ab6565b905091905056fea2646970667358221220b06440518b3e83c4025d3223eda75e52cb47b5c5672963ca751c21529f9f701f64736f6c634300080b0033",
  "linkReferences": {},
  "deployedLinkReferences": {}
}