{
  "_format": "hh-sol-artifact-1",
  "contractName": "AdAuction",
  "sourceName": "contracts/AdAuction.sol",
  "abi": [
    {
      "inputs": [
        {
          "internalType": "string",
          "name": "_adText",
          "type": "string"
        },
        {
          "internalType": "string",
          "name": "_adImageUrl",
          "type": "string"
        },
        {
          "internalType": "string",
          "name": "_adLinkUrl",
          "type": "string"
        },
        {
          "internalType": "uint256",
          "name": "_adPrice",
          "type": "uint256"
        },
        {
          "internalType": "uint256",
          "name": "_adPriceIncrement",
          "type": "uint256"
        }
      ],
      "stateMutability": "nonpayable",
      "type": "constructor"
    },
    {
      "inputs": [],
      "name": "adImageUrl",
      "outputs": [
        {
          "internalType": "string",
          "name": "",
          "type": "string"
        }
      ],
      "stateMutability": "view",
      "type": "function"
    },
    {
      "inputs": [],
      "name": "adLinkUrl",
      "outputs": [
        {
          "internalType": "string",
          "name": "",
          "type": "string"
        }
      ],
      "stateMutability": "view",
      "type": "function"
    },
    {
      "inputs": [],
      "name": "adText",
      "outputs": [
        {
          "internalType": "string",
          "name": "",
          "type": "string"
        }
      ],
      "stateMutability": "view",
      "type": "function"
    },
    {
      "inputs": [
        {
          "internalType": "string",
          "name": "_adText",
          "type": "string"
        },
        {
          "internalType": "string",
          "name": "_adImageUrl",
          "type": "string"
        },
        {
          "internalType": "string",
          "name": "_adLinkUrl",
          "type": "string"
        }
      ],
      "name": "buyAd",
      "outputs": [],
      "stateMutability": "payable",
      "type": "function"
    },
    {
      "inputs": [
        {
          "internalType": "uint256",
          "name": "_increment",
          "type": "uint256"
        }
      ],
      "name": "setIncrement",
      "outputs": [],
      "stateMutability": "nonpayable",
      "type": "function"
    },
    {
      "inputs": [
        {
          "internalType": "uint256",
          "name": "_price",
          "type": "uint256"
        }
      ],
      "name": "setPrice",
      "outputs": [],
      "stateMutability": "nonpayable",
      "type": "function"
    }
  ],
  "bytecode": "0x60806040523480156200001157600080fd5b5060405162000f5238038062000f5283398181016040528101906200003791906200037b565b336000806101000a81548173ffffffffffffffffffffffffffffffffffffffff021916908373ffffffffffffffffffffffffffffffffffffffff1602179055506200008a858585620000a360201b60201c565b81600481905550806005819055505050505050620004c5565b8260019080519060200190620000bb929190620000f3565b508160029080519060200190620000d4929190620000f3565b508060039080519060200190620000ed929190620000f3565b50505050565b82805462000101906200048f565b90600052602060002090601f01602090048101928262000125576000855562000171565b82601f106200014057805160ff191683800117855562000171565b8280016001018555821562000171579182015b828111156200017057825182559160200191906001019062000153565b5b50905062000180919062000184565b5090565b5b808211156200019f57600081600090555060010162000185565b5090565b6000604051905090565b600080fd5b600080fd5b600080fd5b600080fd5b6000601f19601f8301169050919050565b7f4e487b7100000000000000000000000000000000000000000000000000000000600052604160045260246000fd5b6200020c82620001c1565b810181811067ffffffffffffffff821117156200022e576200022d620001d2565b5b80604052505050565b600062000243620001a3565b905062000251828262000201565b919050565b600067ffffffffffffffff821115620002745762000273620001d2565b5b6200027f82620001c1565b9050602081019050919050565b60005b83811015620002ac5780820151818401526020810190506200028f565b83811115620002bc576000848401525b50505050565b6000620002d9620002d38462000256565b62000237565b905082815260208101848484011115620002f857620002f7620001bc565b5b620003058482856200028c565b509392505050565b600082601f830112620003255762000324620001b7565b5b815162000337848260208601620002c2565b91505092915050565b6000819050919050565b620003558162000340565b81146200036157600080fd5b50565b60008151905062000375816200034a565b92915050565b600080600080600060a086880312156200039a5762000399620001ad565b5b600086015167ffffffffffffffff811115620003bb57620003ba620001b2565b5b620003c9888289016200030d565b955050602086015167ffffffffffffffff811115620003ed57620003ec620001b2565b5b620003fb888289016200030d565b945050604086015167ffffffffffffffff8111156200041f576200041e620001b2565b5b6200042d888289016200030d565b9350506060620004408882890162000364565b9250506080620004538882890162000364565b9150509295509295909350565b7f4e487b7100000000000000000000000000000000000000000000000000000000600052602260045260246000fd5b60006002820490506001821680620004a857607f821691505b60208210811415620004bf57620004be62000460565b5b50919050565b610a7d80620004d56000396000f3fe6080604052600436106100555760003560e01c80632de56db41461005a578063397807c51461007657806362e4738f146100a157806391b7f5ed146100cc5780639f1bd676146100f5578063ddf3fc1a14610120575b600080fd5b610074600480360381019061006f91906106d5565b610149565b005b34801561008257600080fd5b5061008b6101f4565b6040516100989190610804565b60405180910390f35b3480156100ad57600080fd5b506100b6610282565b6040516100c39190610804565b60405180910390f35b3480156100d857600080fd5b506100f360048036038101906100ee919061085c565b610310565b005b34801561010157600080fd5b5061010a6103a8565b6040516101179190610804565b60405180910390f35b34801561012c57600080fd5b506101476004803603810190610142919061085c565b610436565b005b600060055460045461015b91906108b8565b9050803410156101a0576040517f08c379a00000000000000000000000000000000000000000000000000000000081526004016101979061095a565b60405180910390fd5b83600190805190602001906101b69291906104d8565b5082600290805190602001906101cd9291906104d8565b5081600390805190602001906101e49291906104d8565b506101ee346104ce565b50505050565b60028054610201906109a9565b80601f016020809104026020016040519081016040528092919081815260200182805461022d906109a9565b801561027a5780601f1061024f5761010080835404028352916020019161027a565b820191906000526020600020905b81548152906001019060200180831161025d57829003601f168201915b505050505081565b6003805461028f906109a9565b80601f01602080910402602001604051908101604052809291908181526020018280546102bb906109a9565b80156103085780601f106102dd57610100808354040283529160200191610308565b820191906000526020600020905b8154815290600101906020018083116102eb57829003601f168201915b505050505081565b60008054906101000a900473ffffffffffffffffffffffffffffffffffffffff1673ffffffffffffffffffffffffffffffffffffffff163373ffffffffffffffffffffffffffffffffffffffff161461039e576040517f08c379a000000000000000000000000000000000000000000000000000000000815260040161039590610a27565b60405180910390fd5b8060048190555050565b600180546103b5906109a9565b80601f01602080910402602001604051908101604052809291908181526020018280546103e1906109a9565b801561042e5780601f106104035761010080835404028352916020019161042e565b820191906000526020600020905b81548152906001019060200180831161041157829003601f168201915b505050505081565b60008054906101000a900473ffffffffffffffffffffffffffffffffffffffff1673ffffffffffffffffffffffffffffffffffffffff163373ffffffffffffffffffffffffffffffffffffffff16146104c4576040517f08c379a00000000000000000000000000000000000000000000000000000000081526004016104bb90610a27565b60405180910390fd5b8060058190555050565b8060048190555050565b8280546104e4906109a9565b90600052602060002090601f016020900481019282610506576000855561054d565b82601f1061051f57805160ff191683800117855561054d565b8280016001018555821561054d579182015b8281111561054c578251825591602001919060010190610531565b5b50905061055a919061055e565b5090565b5b8082111561057757600081600090555060010161055f565b5090565b6000604051905090565b600080fd5b600080fd5b600080fd5b600080fd5b6000601f19601f8301169050919050565b7f4e487b7100000000000000000000000000000000000000000000000000000000600052604160045260246000fd5b6105e282610599565b810181811067ffffffffffffffff82111715610601576106006105aa565b5b80604052505050565b600061061461057b565b905061062082826105d9565b919050565b600067ffffffffffffffff8211156106405761063f6105aa565b5b61064982610599565b9050602081019050919050565b82818337600083830152505050565b600061067861067384610625565b61060a565b90508281526020810184848401111561069457610693610594565b5b61069f848285610656565b509392505050565b600082601f8301126106bc576106bb61058f565b5b81356106cc848260208601610665565b91505092915050565b6000806000606084860312156106ee576106ed610585565b5b600084013567ffffffffffffffff81111561070c5761070b61058a565b5b610718868287016106a7565b935050602084013567ffffffffffffffff8111156107395761073861058a565b5b610745868287016106a7565b925050604084013567ffffffffffffffff8111156107665761076561058a565b5b610772868287016106a7565b9150509250925092565b600081519050919050565b600082825260208201905092915050565b60005b838110156107b657808201518184015260208101905061079b565b838111156107c5576000848401525b50505050565b60006107d68261077c565b6107e08185610787565b93506107f0818560208601610798565b6107f981610599565b840191505092915050565b6000602082019050818103600083015261081e81846107cb565b905092915050565b6000819050919050565b61083981610826565b811461084457600080fd5b50565b60008135905061085681610830565b92915050565b60006020828403121561087257610871610585565b5b600061088084828501610847565b91505092915050565b7f4e487b7100000000000000000000000000000000000000000000000000000000600052601160045260246000fd5b60006108c382610826565b91506108ce83610826565b9250827fffffffffffffffffffffffffffffffffffffffffffffffffffffffffffffffff0382111561090357610902610889565b5b828201905092915050565b7f696e73756666696369656e74207061796d656e74000000000000000000000000600082015250565b6000610944601483610787565b915061094f8261090e565b602082019050919050565b6000602082019050818103600083015261097381610937565b9050919050565b7f4e487b7100000000000000000000000000000000000000000000000000000000600052602260045260246000fd5b600060028204905060018216806109c157607f821691505b602082108114156109d5576109d461097a565b5b50919050565b7f6163636573732064656e69656400000000000000000000000000000000000000600082015250565b6000610a11600d83610787565b9150610a1c826109db565b602082019050919050565b60006020820190508181036000830152610a4081610a04565b905091905056fea2646970667358221220c05742dd025c0d0baeb2907320c3468946cbc71fe8226e8fd54c4feb7db772e964736f6c634300080b0033",
  "linkReferences": {},
  "deployedLinkReferences": {}
}