{
  "_format": "hh-sol-artifact-1",
  "contractName": "AdAuction",
  "sourceName": "contracts/AdAuction.sol",
  "abi": [
    {
      "inputs": [
        {
          "internalType": "string",
          "name": "_adText",
          "type": "string"
        },
        {
          "internalType": "string",
          "name": "_adImageUrl",
          "type": "string"
        },
        {
          "internalType": "string",
          "name": "_adLinkUrl",
          "type": "string"
        },
        {
          "internalType": "uint256",
          "name": "_adPrice",
          "type": "uint256"
        },
        {
          "internalType": "uint256",
          "name": "_adPriceIncrement",
          "type": "uint256"
        }
      ],
      "stateMutability": "nonpayable",
      "type": "constructor"
    },
    {
      "anonymous": false,
      "inputs": [
        {
          "indexed": false,
          "internalType": "uint256",
          "name": "price",
          "type": "uint256"
        }
      ],
      "name": "adPurchased",
      "type": "event"
    },
    {
      "inputs": [],
      "name": "adImageUrl",
      "outputs": [
        {
          "internalType": "string",
          "name": "",
          "type": "string"
        }
      ],
      "stateMutability": "view",
      "type": "function"
    },
    {
      "inputs": [],
      "name": "adLinkUrl",
      "outputs": [
        {
          "internalType": "string",
          "name": "",
          "type": "string"
        }
      ],
      "stateMutability": "view",
      "type": "function"
    },
    {
      "inputs": [],
      "name": "adPriceIncrement",
      "outputs": [
        {
          "internalType": "uint256",
          "name": "",
          "type": "uint256"
        }
      ],
      "stateMutability": "view",
      "type": "function"
    },
    {
      "inputs": [],
      "name": "adText",
      "outputs": [
        {
          "internalType": "string",
          "name": "",
          "type": "string"
        }
      ],
      "stateMutability": "view",
      "type": "function"
    },
    {
      "inputs": [
        {
          "internalType": "string",
          "name": "_adText",
          "type": "string"
        },
        {
          "internalType": "string",
          "name": "_adImageUrl",
          "type": "string"
        },
        {
          "internalType": "string",
          "name": "_adLinkUrl",
          "type": "string"
        }
      ],
      "name": "buyAd",
      "outputs": [],
      "stateMutability": "payable",
      "type": "function"
    },
    {
      "inputs": [],
      "name": "lastPrice",
      "outputs": [
        {
          "internalType": "uint256",
          "name": "",
          "type": "uint256"
        }
      ],
      "stateMutability": "view",
      "type": "function"
    },
    {
      "inputs": [
        {
          "internalType": "uint256",
          "name": "_increment",
          "type": "uint256"
        }
      ],
      "name": "setIncrement",
      "outputs": [],
      "stateMutability": "nonpayable",
      "type": "function"
    },
    {
      "inputs": [
        {
          "internalType": "uint256",
          "name": "_price",
          "type": "uint256"
        }
      ],
      "name": "setPrice",
      "outputs": [],
      "stateMutability": "nonpayable",
      "type": "function"
    }
  ],
  "bytecode": "0x60806040523480156200001157600080fd5b506040516200103d3803806200103d83398181016040528101906200003791906200037b565b336000806101000a81548173ffffffffffffffffffffffffffffffffffffffff021916908373ffffffffffffffffffffffffffffffffffffffff1602179055506200008a858585620000a360201b60201c565b81600481905550806005819055505050505050620004c5565b8260019080519060200190620000bb929190620000f3565b508160029080519060200190620000d4929190620000f3565b508060039080519060200190620000ed929190620000f3565b50505050565b82805462000101906200048f565b90600052602060002090601f01602090048101928262000125576000855562000171565b82601f106200014057805160ff191683800117855562000171565b8280016001018555821562000171579182015b828111156200017057825182559160200191906001019062000153565b5b50905062000180919062000184565b5090565b5b808211156200019f57600081600090555060010162000185565b5090565b6000604051905090565b600080fd5b600080fd5b600080fd5b600080fd5b6000601f19601f8301169050919050565b7f4e487b7100000000000000000000000000000000000000000000000000000000600052604160045260246000fd5b6200020c82620001c1565b810181811067ffffffffffffffff821117156200022e576200022d620001d2565b5b80604052505050565b600062000243620001a3565b905062000251828262000201565b919050565b600067ffffffffffffffff821115620002745762000273620001d2565b5b6200027f82620001c1565b9050602081019050919050565b60005b83811015620002ac5780820151818401526020810190506200028f565b83811115620002bc576000848401525b50505050565b6000620002d9620002d38462000256565b62000237565b905082815260208101848484011115620002f857620002f7620001bc565b5b620003058482856200028c565b509392505050565b600082601f830112620003255762000324620001b7565b5b815162000337848260208601620002c2565b91505092915050565b6000819050919050565b620003558162000340565b81146200036157600080fd5b50565b60008151905062000375816200034a565b92915050565b600080600080600060a086880312156200039a5762000399620001ad565b5b600086015167ffffffffffffffff811115620003bb57620003ba620001b2565b5b620003c9888289016200030d565b955050602086015167ffffffffffffffff811115620003ed57620003ec620001b2565b5b620003fb888289016200030d565b945050604086015167ffffffffffffffff8111156200041f576200041e620001b2565b5b6200042d888289016200030d565b9350506060620004408882890162000364565b9250506080620004538882890162000364565b9150509295509295909350565b7f4e487b7100000000000000000000000000000000000000000000000000000000600052602260045260246000fd5b60006002820490506001821680620004a857607f821691505b60208210811415620004bf57620004be62000460565b5b50919050565b610b6880620004d56000396000f3fe60806040526004361061007b5760003560e01c806362e4738f1161004e57806362e4738f1461011d57806391b7f5ed146101485780639f1bd67614610171578063ddf3fc1a1461019c5761007b565b8063053f14da146100805780632de56db4146100ab578063397807c5146100c75780634c2f23ee146100f2575b600080fd5b34801561008c57600080fd5b506100956101c5565b6040516100a29190610655565b60405180910390f35b6100c560048036038101906100c091906107ca565b6101cb565b005b3480156100d357600080fd5b506100dc6102af565b6040516100e991906108f9565b60405180910390f35b3480156100fe57600080fd5b5061010761033d565b6040516101149190610655565b60405180910390f35b34801561012957600080fd5b50610132610343565b60405161013f91906108f9565b60405180910390f35b34801561015457600080fd5b5061016f600480360381019061016a9190610947565b6103d1565b005b34801561017d57600080fd5b50610186610469565b60405161019391906108f9565b60405180910390f35b3480156101a857600080fd5b506101c360048036038101906101be9190610947565b6104f7565b005b60045481565b60006005546004546101dd91906109a3565b905080341015610222576040517f08c379a000000000000000000000000000000000000000000000000000000000815260040161021990610a45565b60405180910390fd5b8360019080519060200190610238929190610599565b50826002908051906020019061024f929190610599565b508160039080519060200190610266929190610599565b506102703461058f565b7f395384edae5620644c0e564f566472ef3066067dd94f0d0039fc367457cb497e6004546040516102a19190610655565b60405180910390a150505050565b600280546102bc90610a94565b80601f01602080910402602001604051908101604052809291908181526020018280546102e890610a94565b80156103355780601f1061030a57610100808354040283529160200191610335565b820191906000526020600020905b81548152906001019060200180831161031857829003601f168201915b505050505081565b60055481565b6003805461035090610a94565b80601f016020809104026020016040519081016040528092919081815260200182805461037c90610a94565b80156103c95780601f1061039e576101008083540402835291602001916103c9565b820191906000526020600020905b8154815290600101906020018083116103ac57829003601f168201915b505050505081565b60008054906101000a900473ffffffffffffffffffffffffffffffffffffffff1673ffffffffffffffffffffffffffffffffffffffff163373ffffffffffffffffffffffffffffffffffffffff161461045f576040517f08c379a000000000000000000000000000000000000000000000000000000000815260040161045690610b12565b60405180910390fd5b8060048190555050565b6001805461047690610a94565b80601f01602080910402602001604051908101604052809291908181526020018280546104a290610a94565b80156104ef5780601f106104c4576101008083540402835291602001916104ef565b820191906000526020600020905b8154815290600101906020018083116104d257829003601f168201915b505050505081565b60008054906101000a900473ffffffffffffffffffffffffffffffffffffffff1673ffffffffffffffffffffffffffffffffffffffff163373ffffffffffffffffffffffffffffffffffffffff1614610585576040517f08c379a000000000000000000000000000000000000000000000000000000000815260040161057c90610b12565b60405180910390fd5b8060058190555050565b8060048190555050565b8280546105a590610a94565b90600052602060002090601f0160209004810192826105c7576000855561060e565b82601f106105e057805160ff191683800117855561060e565b8280016001018555821561060e579182015b8281111561060d5782518255916020019190600101906105f2565b5b50905061061b919061061f565b5090565b5b80821115610638576000816000905550600101610620565b5090565b6000819050919050565b61064f8161063c565b82525050565b600060208201905061066a6000830184610646565b92915050565b6000604051905090565b600080fd5b600080fd5b600080fd5b600080fd5b6000601f19601f8301169050919050565b7f4e487b7100000000000000000000000000000000000000000000000000000000600052604160045260246000fd5b6106d78261068e565b810181811067ffffffffffffffff821117156106f6576106f561069f565b5b80604052505050565b6000610709610670565b905061071582826106ce565b919050565b600067ffffffffffffffff8211156107355761073461069f565b5b61073e8261068e565b9050602081019050919050565b82818337600083830152505050565b600061076d6107688461071a565b6106ff565b90508281526020810184848401111561078957610788610689565b5b61079484828561074b565b509392505050565b600082601f8301126107b1576107b0610684565b5b81356107c184826020860161075a565b91505092915050565b6000806000606084860312156107e3576107e261067a565b5b600084013567ffffffffffffffff8111156108015761080061067f565b5b61080d8682870161079c565b935050602084013567ffffffffffffffff81111561082e5761082d61067f565b5b61083a8682870161079c565b925050604084013567ffffffffffffffff81111561085b5761085a61067f565b5b6108678682870161079c565b9150509250925092565b600081519050919050565b600082825260208201905092915050565b60005b838110156108ab578082015181840152602081019050610890565b838111156108ba576000848401525b50505050565b60006108cb82610871565b6108d5818561087c565b93506108e581856020860161088d565b6108ee8161068e565b840191505092915050565b6000602082019050818103600083015261091381846108c0565b905092915050565b6109248161063c565b811461092f57600080fd5b50565b6000813590506109418161091b565b92915050565b60006020828403121561095d5761095c61067a565b5b600061096b84828501610932565b91505092915050565b7f4e487b7100000000000000000000000000000000000000000000000000000000600052601160045260246000fd5b60006109ae8261063c565b91506109b98361063c565b9250827fffffffffffffffffffffffffffffffffffffffffffffffffffffffffffffffff038211156109ee576109ed610974565b5b828201905092915050565b7f696e73756666696369656e74207061796d656e74000000000000000000000000600082015250565b6000610a2f60148361087c565b9150610a3a826109f9565b602082019050919050565b60006020820190508181036000830152610a5e81610a22565b9050919050565b7f4e487b7100000000000000000000000000000000000000000000000000000000600052602260045260246000fd5b60006002820490506001821680610aac57607f821691505b60208210811415610ac057610abf610a65565b5b50919050565b7f6163636573732064656e69656400000000000000000000000000000000000000600082015250565b6000610afc600d8361087c565b9150610b0782610ac6565b602082019050919050565b60006020820190508181036000830152610b2b81610aef565b905091905056fea26469706673582212201fae032d294c5017833af65630672982df75cbf102fbf51b3e1c0b5cf2215ffe64736f6c634300080b0033",
  "linkReferences": {},
  "deployedLinkReferences": {}
}